{
  "_format": "hh-sol-artifact-1",
  "contractName": "Sandesh",
  "sourceName": "contracts/Sandesh.sol",
  "abi": [
    {
      "inputs": [],
      "stateMutability": "nonpayable",
      "type": "constructor"
    },
    {
      "inputs": [
        {
          "internalType": "address",
          "name": "addressValue",
          "type": "address"
        }
      ],
      "name": "getConversations",
      "outputs": [
        {
          "components": [
            {
              "internalType": "string",
              "name": "id",
              "type": "string"
            },
            {
              "internalType": "bool",
              "name": "isGroup",
              "type": "bool"
            },
            {
              "internalType": "string",
              "name": "dappId",
              "type": "string"
            }
          ],
          "internalType": "struct Sandesh.Conversation[]",
          "name": "",
          "type": "tuple[]"
        }
      ],
      "stateMutability": "view",
      "type": "function"
    },
    {
      "inputs": [
        {
          "internalType": "string",
          "name": "_conversationId",
          "type": "string"
        }
      ],
      "name": "getMessages",
      "outputs": [
        {
          "components": [
            {
              "internalType": "string",
              "name": "id",
              "type": "string"
            },
            {
              "internalType": "address",
              "name": "to",
              "type": "address"
            },
            {
              "internalType": "address",
              "name": "from",
              "type": "address"
            },
            {
              "internalType": "string",
              "name": "contentCID",
              "type": "string"
            },
            {
              "internalType": "uint256",
              "name": "timestamp",
              "type": "uint256"
            }
          ],
          "internalType": "struct Sandesh.Message[]",
          "name": "",
          "type": "tuple[]"
        }
      ],
      "stateMutability": "view",
      "type": "function"
    },
    {
      "inputs": [
        {
          "internalType": "string",
          "name": "_id",
          "type": "string"
        }
      ],
      "name": "registerDapp",
      "outputs": [
        {
          "internalType": "bool",
          "name": "",
          "type": "bool"
        }
      ],
      "stateMutability": "nonpayable",
      "type": "function"
    },
    {
      "inputs": [
        {
          "internalType": "address",
          "name": "to",
          "type": "address"
        },
        {
          "internalType": "string",
          "name": "contentCID",
          "type": "string"
        },
        {
          "internalType": "string",
          "name": "dappId",
          "type": "string"
        }
      ],
      "name": "sendPrivateMessage",
      "outputs": [
        {
          "internalType": "string",
          "name": "",
          "type": "string"
        }
      ],
      "stateMutability": "nonpayable",
      "type": "function"
    }
  ],
  "bytecode": "0x608060405234801561001057600080fd5b50336000806101000a81548173ffffffffffffffffffffffffffffffffffffffff021916908373ffffffffffffffffffffffffffffffffffffffff160217905550612293806100606000396000f3fe608060405234801561001057600080fd5b506004361061004c5760003560e01c80635d89f857146100515780637f75883d14610081578063c8582012146100b1578063df9084eb146100e1575b600080fd5b61006b60048036038101906100669190611679565b610111565b60405161007891906117a7565b60405180910390f35b61009b600480360381019061009691906117c9565b610a60565b6040516100a89190611974565b60405180910390f35b6100cb60048036038101906100c69190611996565b610c3d565b6040516100d891906119f2565b60405180910390f35b6100fb60048036038101906100f69190611996565b610cfc565b6040516101089190611b74565b60405180910390f35b606060038383604051610125929190611bd5565b908152602001604051809103902060009054906101000a900460ff16610180576040517f08c379a000000000000000000000000000000000000000000000000000000000815260040161017790611c86565b60405180910390fd5b600061018c3388610f56565b90506000600160003373ffffffffffffffffffffffffffffffffffffffff1673ffffffffffffffffffffffffffffffffffffffff168152602001908152602001600020805480602002602001604051908101604052809291908181526020016000905b82821015610360578382906000526020600020906003020160405180606001604052908160008201805461022290611cd5565b80601f016020809104026020016040519081016040528092919081815260200182805461024e90611cd5565b801561029b5780601f106102705761010080835404028352916020019161029b565b820191906000526020600020905b81548152906001019060200180831161027e57829003601f168201915b505050505081526020016001820160009054906101000a900460ff161515151581526020016002820180546102cf90611cd5565b80601f01602080910402602001604051908101604052809291908181526020018280546102fb90611cd5565b80156103485780601f1061031d57610100808354040283529160200191610348565b820191906000526020600020905b81548152906001019060200180831161032b57829003601f168201915b505050505081525050815260200190600101906101ef565b5050505090506000805b825181101561064357600060028560006002811061038b5761038a611d07565b5b602002015160405161039d9190611d67565b90815260200160405180910390208054905011806103f4575060006002856001600281106103ce576103cd611d07565b5b60200201516040516103e09190611d67565b908152602001604051809103902080549050115b1561063057600061040442610fb5565b905060006040518060a001604052808381526020018d73ffffffffffffffffffffffffffffffffffffffff1681526020013373ffffffffffffffffffffffffffffffffffffffff1681526020018c8c8080601f016020809104026020016040519081016040528093929190818152602001838380828437600081840152601f19601f8201169050808301925050505050505081526020014281525090506000806002886000600281106104ba576104b9611d07565b5b60200201516040516104cc9190611d67565b90815260200160405180910390208054905011156104ed57600090506104f2565b600190505b6002878260ff166002811061050a57610509611d07565b5b602002015160405161051c9190611d67565b908152602001604051809103902082908060018154018082558091505060019003906000526020600020906005020160009091909190915060008201518160000190805190602001906105709291906114e2565b5060208201518160010160006101000a81548173ffffffffffffffffffffffffffffffffffffffff021916908373ffffffffffffffffffffffffffffffffffffffff16021790555060408201518160020160006101000a81548173ffffffffffffffffffffffffffffffffffffffff021916908373ffffffffffffffffffffffffffffffffffffffff160217905550606082015181600301908051906020019061061b9291906114e2565b50608082015181600401555050600194505050505b808061063b90611dad565b91505061036a565b50600015158115151415610a3957600060405180606001604052808560006002811061067257610671611d07565b5b6020020151815260200160001515815260200188888080601f016020809104026020016040519081016040528093929190818152602001838380828437600081840152601f19601f820116905080830192505050505050508152509050600160003373ffffffffffffffffffffffffffffffffffffffff1673ffffffffffffffffffffffffffffffffffffffff16815260200190815260200160002081908060018154018082558091505060019003906000526020600020906003020160009091909190915060008201518160000190805190602001906107549291906114e2565b5060208201518160010160006101000a81548160ff02191690831515021790555060408201518160020190805190602001906107919291906114e2565b505050600160008b73ffffffffffffffffffffffffffffffffffffffff1673ffffffffffffffffffffffffffffffffffffffff16815260200190815260200160002081908060018154018082558091505060019003906000526020600020906003020160009091909190915060008201518160000190805190602001906108199291906114e2565b5060208201518160010160006101000a81548160ff02191690831515021790555060408201518160020190805190602001906108569291906114e2565b505050600061086442610fb5565b905060006040518060a001604052808381526020018d73ffffffffffffffffffffffffffffffffffffffff1681526020013373ffffffffffffffffffffffffffffffffffffffff1681526020018c8c8080601f016020809104026020016040519081016040528093929190818152602001838380828437600081840152601f19601f82011690508083019250505050505050815260200142815250905060028660006002811061091757610916611d07565b5b60200201516040516109299190611d67565b9081526020016040518091039020819080600181540180825580915050600190039060005260206000209060050201600090919091909150600082015181600001908051906020019061097d9291906114e2565b5060208201518160010160006101000a81548173ffffffffffffffffffffffffffffffffffffffff021916908373ffffffffffffffffffffffffffffffffffffffff16021790555060408201518160020160006101000a81548173ffffffffffffffffffffffffffffffffffffffff021916908373ffffffffffffffffffffffffffffffffffffffff1602179055506060820151816003019080519060200190610a289291906114e2565b506080820151816004015550505050505b82600060028110610a4d57610a4c611d07565b5b6020020151935050505095945050505050565b6060600160008373ffffffffffffffffffffffffffffffffffffffff1673ffffffffffffffffffffffffffffffffffffffff168152602001908152602001600020805480602002602001604051908101604052809291908181526020016000905b82821015610c325783829060005260206000209060030201604051806060016040529081600082018054610af490611cd5565b80601f0160208091040260200160405190810160405280929190818152602001828054610b2090611cd5565b8015610b6d5780601f10610b4257610100808354040283529160200191610b6d565b820191906000526020600020905b815481529060010190602001808311610b5057829003601f168201915b505050505081526020016001820160009054906101000a900460ff16151515158152602001600282018054610ba190611cd5565b80601f0160208091040260200160405190810160405280929190818152602001828054610bcd90611cd5565b8015610c1a5780601f10610bef57610100808354040283529160200191610c1a565b820191906000526020600020905b815481529060010190602001808311610bfd57829003601f168201915b50505050508152505081526020019060010190610ac1565b505050509050919050565b6000806001151560038585604051610c56929190611bd5565b908152602001604051809103902060009054906101000a900460ff1615151415905080610cb8576040517f08c379a0000000000000000000000000000000000000000000000000000000008152600401610caf90611e68565b60405180910390fd5b600160038585604051610ccc929190611bd5565b908152602001604051809103902060006101000a81548160ff021916908315150217905550600191505092915050565b606060028383604051610d10929190611bd5565b9081526020016040518091039020805480602002602001604051908101604052809291908181526020016000905b82821015610f4a57838290600052602060002090600502016040518060a0016040529081600082018054610d7190611cd5565b80601f0160208091040260200160405190810160405280929190818152602001828054610d9d90611cd5565b8015610dea5780601f10610dbf57610100808354040283529160200191610dea565b820191906000526020600020905b815481529060010190602001808311610dcd57829003601f168201915b505050505081526020016001820160009054906101000a900473ffffffffffffffffffffffffffffffffffffffff1673ffffffffffffffffffffffffffffffffffffffff1673ffffffffffffffffffffffffffffffffffffffff1681526020016002820160009054906101000a900473ffffffffffffffffffffffffffffffffffffffff1673ffffffffffffffffffffffffffffffffffffffff1673ffffffffffffffffffffffffffffffffffffffff168152602001600382018054610eaf90611cd5565b80601f0160208091040260200160405190810160405280929190818152602001828054610edb90611cd5565b8015610f285780601f10610efd57610100808354040283529160200191610f28565b820191906000526020600020905b815481529060010190602001808311610f0b57829003601f168201915b5050505050815260200160048201548152505081526020019060010190610d3e565b50505050905092915050565b610f5e611568565b6000610f698461113e565b90506000610f768461113e565b90506000610f848383611301565b90506000610f928385611301565b905060405180604001604052808381526020018281525094505050505092915050565b60606000821415610ffd576040518060400160405280600181526020017f30000000000000000000000000000000000000000000000000000000000000008152509050611139565b600082905060005b6000821461102f57808061101890611dad565b915050600a826110289190611eb7565b9150611005565b60008167ffffffffffffffff81111561104b5761104a611ee8565b5b6040519080825280601f01601f19166020018201604052801561107d5781602001600182028036833780820191505090505b50905060008290505b600086146111315760018161109b9190611f17565b90506000600a80886110ad9190611eb7565b6110b79190611f4b565b876110c29190611f17565b60306110ce9190611fb2565b905060008160f81b9050808484815181106110ec576110eb611d07565b5b60200101907effffffffffffffffffffffffffffffffffffffffffffffffffffffffffffff1916908160001a905350600a886111289190611eb7565b97505050611086565b819450505050505b919050565b60606000602867ffffffffffffffff81111561115d5761115c611ee8565b5b6040519080825280601f01601f19166020018201604052801561118f5781602001600182028036833780820191505090505b50905060005b60148110156112f75760008160136111ad9190611f17565b60086111b99190611f4b565b60026111c5919061211c565b8573ffffffffffffffffffffffffffffffffffffffff166111e69190611eb7565b60f81b9050600060108260f81c6111fd9190612167565b60f81b905060008160f81c60106112149190612198565b8360f81c61122291906121d3565b60f81b90506112308261149c565b8585600261123e9190611f4b565b8151811061124f5761124e611d07565b5b60200101907effffffffffffffffffffffffffffffffffffffffffffffffffffffffffffff1916908160001a9053506112878161149c565b8560018660026112979190611f4b565b6112a19190612207565b815181106112b2576112b1611d07565b5b60200101907effffffffffffffffffffffffffffffffffffffffffffffffffffffffffffff1916908160001a90535050505080806112ef90611dad565b915050611195565b5080915050919050565b60606000839050600083905060008151835161131d9190612207565b67ffffffffffffffff81111561133657611335611ee8565b5b6040519080825280601f01601f1916602001820160405280156113685781602001600182028036833780820191505090505b5090506000819050600080600091505b85518210156114005785828151811061139457611393611d07565b5b602001015160f81c60f81b8382806113ab90611dad565b9350815181106113be576113bd611d07565b5b60200101907effffffffffffffffffffffffffffffffffffffffffffffffffffffffffffff1916908160001a90535081806113f890611dad565b925050611378565b600091505b845182101561148d5784828151811061142157611420611d07565b5b602001015160f81c60f81b83828061143890611dad565b93508151811061144b5761144a611d07565b5b60200101907effffffffffffffffffffffffffffffffffffffffffffffffffffffffffffff1916908160001a905350818061148590611dad565b925050611405565b82965050505050505092915050565b6000600a8260f81c60ff1610156114c75760308260f81c6114bd9190611fb2565b60f81b90506114dd565b60578260f81c6114d79190611fb2565b60f81b90505b919050565b8280546114ee90611cd5565b90600052602060002090601f0160209004810192826115105760008555611557565b82601f1061152957805160ff1916838001178555611557565b82800160010185558215611557579182015b8281111561155657825182559160200191906001019061153b565b5b509050611564919061158f565b5090565b60405180604001604052806002905b60608152602001906001900390816115775790505090565b5b808211156115a8576000816000905550600101611590565b5090565b600080fd5b600080fd5b600073ffffffffffffffffffffffffffffffffffffffff82169050919050565b60006115e1826115b6565b9050919050565b6115f1816115d6565b81146115fc57600080fd5b50565b60008135905061160e816115e8565b92915050565b600080fd5b600080fd5b600080fd5b60008083601f84011261163957611638611614565b5b8235905067ffffffffffffffff81111561165657611655611619565b5b6020830191508360018202830111156116725761167161161e565b5b9250929050565b600080600080600060608688031215611695576116946115ac565b5b60006116a3888289016115ff565b955050602086013567ffffffffffffffff8111156116c4576116c36115b1565b5b6116d088828901611623565b9450945050604086013567ffffffffffffffff8111156116f3576116f26115b1565b5b6116ff88828901611623565b92509250509295509295909350565b600081519050919050565b600082825260208201905092915050565b60005b8381101561174857808201518184015260208101905061172d565b83811115611757576000848401525b50505050565b6000601f19601f8301169050919050565b60006117798261170e565b6117838185611719565b935061179381856020860161172a565b61179c8161175d565b840191505092915050565b600060208201905081810360008301526117c1818461176e565b905092915050565b6000602082840312156117df576117de6115ac565b5b60006117ed848285016115ff565b91505092915050565b600081519050919050565b600082825260208201905092915050565b6000819050602082019050919050565b600082825260208201905092915050565b600061183e8261170e565b6118488185611822565b935061185881856020860161172a565b6118618161175d565b840191505092915050565b60008115159050919050565b6118818161186c565b82525050565b600060608301600083015184820360008601526118a48282611833565b91505060208301516118b96020860182611878565b50604083015184820360408601526118d18282611833565b9150508091505092915050565b60006118ea8383611887565b905092915050565b6000602082019050919050565b600061190a826117f6565b6119148185611801565b93508360208202850161192685611812565b8060005b85811015611962578484038952815161194385826118de565b945061194e836118f2565b925060208a0199505060018101905061192a565b50829750879550505050505092915050565b6000602082019050818103600083015261198e81846118ff565b905092915050565b600080602083850312156119ad576119ac6115ac565b5b600083013567ffffffffffffffff8111156119cb576119ca6115b1565b5b6119d785828601611623565b92509250509250929050565b6119ec8161186c565b82525050565b6000602082019050611a0760008301846119e3565b92915050565b600081519050919050565b600082825260208201905092915050565b6000819050602082019050919050565b611a42816115d6565b82525050565b6000819050919050565b611a5b81611a48565b82525050565b600060a0830160008301518482036000860152611a7e8282611833565b9150506020830151611a936020860182611a39565b506040830151611aa66040860182611a39565b5060608301518482036060860152611abe8282611833565b9150506080830151611ad36080860182611a52565b508091505092915050565b6000611aea8383611a61565b905092915050565b6000602082019050919050565b6000611b0a82611a0d565b611b148185611a18565b935083602082028501611b2685611a29565b8060005b85811015611b625784840389528151611b438582611ade565b9450611b4e83611af2565b925060208a01995050600181019050611b2a565b50829750879550505050505092915050565b60006020820190508181036000830152611b8e8184611aff565b905092915050565b600081905092915050565b82818337600083830152505050565b6000611bbc8385611b96565b9350611bc9838584611ba1565b82840190509392505050565b6000611be2828486611bb0565b91508190509392505050565b7f4461707020646f65736e2774206578697374732e20506c65617365206368656360008201527f6b2044617070206964206f72207265676973746572206974207573696e67207260208201527f6567697374657244617070000000000000000000000000000000000000000000604082015250565b6000611c70604b83611719565b9150611c7b82611bee565b606082019050919050565b60006020820190508181036000830152611c9f81611c63565b9050919050565b7f4e487b7100000000000000000000000000000000000000000000000000000000600052602260045260246000fd5b60006002820490506001821680611ced57607f821691505b60208210811415611d0157611d00611ca6565b5b50919050565b7f4e487b7100000000000000000000000000000000000000000000000000000000600052603260045260246000fd5b6000611d418261170e565b611d4b8185611b96565b9350611d5b81856020860161172a565b80840191505092915050565b6000611d738284611d36565b915081905092915050565b7f4e487b7100000000000000000000000000000000000000000000000000000000600052601160045260246000fd5b6000611db882611a48565b91507fffffffffffffffffffffffffffffffffffffffffffffffffffffffffffffffff821415611deb57611dea611d7e565b5b600182019050919050565b7f556e61626c6520746f20726567697374657220646170702c20616c726561647960008201527f20757365642069642e0000000000000000000000000000000000000000000000602082015250565b6000611e52602983611719565b9150611e5d82611df6565b604082019050919050565b60006020820190508181036000830152611e8181611e45565b9050919050565b7f4e487b7100000000000000000000000000000000000000000000000000000000600052601260045260246000fd5b6000611ec282611a48565b9150611ecd83611a48565b925082611edd57611edc611e88565b5b828204905092915050565b7f4e487b7100000000000000000000000000000000000000000000000000000000600052604160045260246000fd5b6000611f2282611a48565b9150611f2d83611a48565b925082821015611f4057611f3f611d7e565b5b828203905092915050565b6000611f5682611a48565b9150611f6183611a48565b9250817fffffffffffffffffffffffffffffffffffffffffffffffffffffffffffffffff0483118215151615611f9a57611f99611d7e565b5b828202905092915050565b600060ff82169050919050565b6000611fbd82611fa5565b9150611fc883611fa5565b92508260ff03821115611fde57611fdd611d7e565b5b828201905092915050565b60008160011c9050919050565b6000808291508390505b60018511156120405780860481111561201c5761201b611d7e565b5b600185161561202b5780820291505b808102905061203985611fe9565b9450612000565b94509492505050565b6000826120595760019050612115565b816120675760009050612115565b816001811461207d5760028114612087576120b6565b6001915050612115565b60ff84111561209957612098611d7e565b5b8360020a9150848211156120b0576120af611d7e565b5b50612115565b5060208310610133831016604e8410600b84101617156120eb5782820a9050838111156120e6576120e5611d7e565b5b612115565b6120f88484846001611ff6565b9250905081840481111561210f5761210e611d7e565b5b81810290505b9392505050565b600061212782611a48565b915061213283611a48565b925061215f7fffffffffffffffffffffffffffffffffffffffffffffffffffffffffffffffff8484612049565b905092915050565b600061217282611fa5565b915061217d83611fa5565b92508261218d5761218c611e88565b5b828204905092915050565b60006121a382611fa5565b91506121ae83611fa5565b92508160ff04831182151516156121c8576121c7611d7e565b5b828202905092915050565b60006121de82611fa5565b91506121e983611fa5565b9250828210156121fc576121fb611d7e565b5b828203905092915050565b600061221282611a48565b915061221d83611a48565b9250827fffffffffffffffffffffffffffffffffffffffffffffffffffffffffffffffff0382111561225257612251611d7e565b5b82820190509291505056fea2646970667358221220a91eb7030483d83827b3b595afc65fdc3eec7d23ebdafcdb400580aac916a03a64736f6c63430008090033",
  "linkReferences": {},
  "deployedLinkReferences": {}
}